:020000040800F2
:10000000800A00208D020008D9460008CF3400087D
:100010002940000801180008B1560008000000003F
:10002000000000000000000000000000754C000807
:100030005118000800000000734C0008C94C00086B
:10004000A7020008A7020008A7020008A7020008EC
:10005000A7020008A7020008A7020008A7020008DC
:10006000A7020008A7020008A7020008A7020008CC
:10007000A7020008A7020008A7020008A7020008BC
:10008000A7020008A7020008A7020008A7020008AC
:10009000A7020008A7020008A7020008A70200089C
:1000A000A7020008954D0008A7020008A702000853
:1000B000A7020008A7020008A7020008A70200087C
:1000C000A7020008A7020008A7020008A70200086C
:1000D000A7020008A7020008A7020008A70200085C
:1000E000A7020008A7020008A7020008A70200084C
:1000F000A7020008A7020008A7020008A70200083C
:10010000A7020008A7020008A7020008A70200082B
:10011000A7020008D1530008A7020008A7020008A0
:10012000A7020008A7020008A7020008A70200080B
:10013000A7020008A7020008A7020008A7020008FB
:10014000A7020008A7020008A7020008A7020008EB
:10015000A7020008A7020008A7020008A7020008DB
:10016000A7020008A7020008A7020008A7020008CB
:10017000A7020008A7020008A7020008000000006C
:10018000A7020008A702000800F002F800F06FF8CC
:100190000AA090E8000C82448344AAF10107DA45E2
:1001A00001D100F064F8AFF2090EBAE80F0013F0C5
:1001B000010F18BFFB1A43F001031847B8A700004E
:1001C000D8A700000A444FF0000C10F8013B13F0D0
:1001D000070408BF10F8014B1D1108BF10F8015BA0
:1001E000641E05D010F8016B641E01F8016BF9D193
:1001F00013F0080F1EBF10F8014BAD1C0C1B09D1EA
:100200006D1E58BF01F801CBFAD505E014F8016B5B
:1002100001F8016B6D1EF9D59142D6D370470000ED
:100220000023002400250026103A28BF78C1FBD8FF
:10023000520728BF30C148BF0B607047662909F0DC
:100240007181642900F03681732900F01E85002039
:1002500070471FB509F02BF900F03EFD04000020A7
:10026000002108F09FFBE0601FBD10B510BD00F03D
:1002700037FE1146FFF7EDFF07F0D8FA00F055FE04
:1002800003B4FFF7F2FF03BC00F098FE0948804773
:1002900009480047FEE7FEE7FEE7FEE7FEE7FEE768
:1002A000FEE7FEE7FEE7FEE704480549054A064B80
:1002B00070470000854D0008890100088004002077
:1002C000800A0020800600208006002053EA020CED
:1002D00000F069802DE9F04B4FF00006002B1FBFA6
:1002E000B3FA83F503FA05F424FA05F65E4012BF6B
:1002F0001643B2FA82F502FA05F4C5F120051EBFD5
:1003000022FA05FC44EA0C04203556EA044C4FEA74
:10031000144418BF641C4FF000084FF000099042CD
:1003200071EB030C39D3002919BFB1FA81F701FA37
:1003300007F6B0FA80F700FA07F6C7F120071EBFEC
:1003400020FA07FC46EA0C062037B6FBF4FCA7EBC4
:100350000507103F07F01F0BCBF120060CFA0BFB33
:100360002CFA06F644BFB3460026202FA4BF5E46F3
:100370004FF0000B5BEA060C08BF4FF0010B19EBC6
:100380000B09ABFB027C48EB0608C01B06FB02CC4A
:100390000BFB03CC71EB0C01C1E70B460246414657
:1003A0004846BDE8F08B13B54FF000004FF0000158
:1003B000AFF30080BDE81C40704710B54C1084EAD4
:1003C000530404D54042C1F1000138BF491E1B420D
:1003D00004D55242C3F1000338BF5B1EFFF776FF1E
:1003E00014F0804F04D04042C1F1000138BF491ED3
:1003F00014F0004F04D05242C3F1000338BF5B1E1B
:1004000010BD00000FB41CB5074B06AA7B4469461B
:100410000090059800F007FC0020694600F016FCEB
:100420001CBC5DF814FB00003D0800000FB41CB5B7
:100430000C0007AA009001D02044401E074B7B44CB
:1004400069460190069800F0EEFB002C03D0694647
:10045000002000F0FBFB1CBC5DF814FB150800003D
:1004600070B50C460546012A05D02878800600D5CF
:10047000EA69002302E0012305E05B1C934202D2FB
:10048000E05C0028F9D1A869E618C01AA861286ABA
:10049000184428622846AFF3008004E0D5E9012122
:1004A00014F8010B9047B442F8D32846AFF300800C
:1004B00070BD00002DE9F041064600241068752942
:1004C000314616A510D0AFF30080002802DA404272
:1004D00013A507E031688A0701D512A502E0490794
:1004E00004D511A5012401E0AFF3008000210A2208
:1004F00006F1240709E0B0FBF2FCB0FBF2F302FBCB
:100500001C00303078541846491C0028F3D123468B
:100510002A463046BDE8F04100F017B9000000005F
:100520002D0000002B000000200000002DE9F04706
:100530004FF0000A89460446C0F820A02046E16832
:100540008847002876D0252806D0D4E90121904795
:10055000206A401C2062F1E7E168204600258847B8
:10056000C4F81CA006460027C4F818A02A2E09D0FB
:10057000304606F01BF838B304EB8708303EC8F865
:10058000186019E059F8041B204604EB87029161BA
:10059000E1688847012F064618D1E069002820DA73
:1005A00025F020051DE0D8F8180000EB800006EBD0
:1005B00040003038C8F818002046E16888470646F1
:1005C00005F0F4FF0028EED1012F0AD02E2E08D11D
:1005D0002046E16888477F1C0646022F45F020052B
:1005E000C4DBA069002803DA404245F00105A061A0
:1005F000E80701D025F01005B6B1A6F14100192891
:1006000002D8203645F400654A463146204625602A
:100610004D46FFF713FE58B1012806D0ED1D25F019
:10062000070000F1080989E704E005F1040985E7FE
:1006300030468AE7206ABDE8F08740EA010310B53A
:100640009B070FD1042A0DD310C808C9121F9C4262
:10065000F8D020BA19BA884201D9012010BD4FF054
:10066000FF3010BD1AB1D30703D0521C07E00020A1
:1006700010BD10F8013B11F8014B1B1B07D110F8FE
:10068000013B11F8014B1B1B01D1921EF1D1184601
:1006900010BD10B5431C02E010F8011B71B18107B9
:1006A000FAD14FF0013202C88C1A8C4314EAC211FD
:1006B000F9D0C01A0A0603D0C01E10BDC01A10BD62
:1006C0000A0401D0801E10BD0902FCD0401E10BDDE
:1006D00002F0FF0343EA032242EA024200F0DBBADF
:1006E0004FF0000200B5134694469646203922BFCB
:1006F000A0E80C50A0E80C50B1F12001BFF4F7AF16
:10070000090728BFA0E80C5048BF0CC05DF804EBF7
:10071000890028BF40F8042B08BF704748BF20F865
:10072000022B11F0804F18BF00F8012B7047704763
:100730007047704710B500F0D3FA006810BD10B5CF
:10074000044600F0CDFA046010BD2DE9F0470D46D7
:1007500099469246044600F124080168880604D5AB
:10076000E06921F01001216000E00120A84201DDD4
:10077000471B00E00027A1697A1902EB0900081A5B
:10078000A0612078C00602D42046AFF30080002686
:1007900008E0D4E901211AF806009047206A401CBD
:1007A000761C20624E45F4DB2078C0060AD5204630
:1007B000AFF3008006E0D4E9012130209047206AA1
:1007C000401C2062381EA7F10107F4DC07E0D4E9E1
:1007D000012118F805009047206A401C2062281E5D
:1007E000A5F10105F3DC2046AFF300802078000678
:1007F00002D50220BDE8F0870120FBE770472DE914
:10080000FF4F0C461E464FF0FF378BB0D2E9000178
:10081000DDF860800A908A46C1F30A5505B93D4665
:10082000002108464FF00000BAF1000F00F440002C
:1008300005DA00EB80004FF4400101EA50004FEA76
:100840009059B9F1010F00DDB9460A9850EA4A0003
:100850000ED044F61050A5F2FF3545432F14B8F1E1
:10086000000F1ED07542291E1EDDC9F100021CE0DA
:10087000B8F1010F4FF0000001D0302103E0F24346
:1008800005E02154401CB042FBDB30460022002131
:1008900021540B99C1F80880C1E900200FB0BDE8D0
:1008A000F08FBD1B6D1CDEE74A4600DA694206A8E0
:1008B00000F0A0FA06AB93E8070003AB83E807005B
:1008C00050460A9900F081FB8DE80700A0F5005022
:1008D0001F3800900398002D0ADD42F21F014A469E
:1008E0000844002303A90390684600F0EAFD09E0EC
:1008F000A0F500504A461F38002303A9039068461C
:1009000000F0F4FD8DE807000004000C03D04FF068
:10091000FF30410800E01046B8F1000F03D000227C
:10092000009215461EE0751E05D400F0DDF9303248
:1009300062556D1EF9D5B3460122084302D000224C
:100940007F1C04E02078302801D100227F1E002A7D
:10095000099784D01DE0112D07DA00F0C5F9303277
:1009600062556D1C50EA0102F5D1084302D000988F
:10097000C8B10EE00021681E05E0235C625C635490
:100980002254401E491C8142F7DBAB46A81B401E87
:100990000990002004F80B000B98099AC0F8088011
:1009A000C0E9002B7AE711264FF0000857E72DE940
:1009B000F04F88460446D21D22F0070191B0D1E9DC
:1009C0000001CDE90A0104F074FE02460B98C00F45
:1009D00001D02D2007E02068810701D52B2002E0FF
:1009E000202101EAC000032A099001D0072A05DB73
:1009F00003464146204600F0BDF90BE12078800611
:100A000001D5E06900E00620B8F1650F814606D007
:100A1000B8F1660F18D0B8F1670F70D131E000203F
:100A2000B9F1110F009001DB112301E009F101037D
:100A30000AAA01A90CA8FFF7E2FEDDE90C70002666
:100A400009F10105834647E001204B4600904FF035
:100A500000470AAA01A90CA8FFF7D1FEDDE90DB0F5
:100A60000C995D46002610B909F101000D18B9EB8B
:100A7000050003D4C0F1FF3609F10105A5EB09001B
:100A80002BE0B9F1010F01DA4FF001090020B9F1B3
:100A9000110F0090484601DD112300E003460AAA29
:100AA00001A90CA8FFF7ABFEDDE90C704D4600264E
:100AB0008346207800070AD4AB4500DA5D4601A8DA
:100AC000012D04DD411911F8011C302907D04F45D3
:100AD00002DA17F1040F04DA012082460FE06D1EDE
:100AE000EEE7002F02DCED1B3E4403E0781CA84239
:100AF00000DD7D1CB81B00F1010A4FF00047207893
:100B0000000703D4AA4501DB4FF0FF3A0021B7F1FB
:100B1000004F0DF143088DF8431024D002202B2301
:100B2000002F01DA7F422D230A21021EA0F10100CD
:100B300000DC5FB197FBF1FC97FBF1F201FB1C7C41
:100B400017460CF1300C08F801CDEEE7A8F10100D2
:100B500003702188090501D5452100E06521A0F138
:100B6000010800F8011C09980FA9A1EB0807FF1D57
:100B700000B10120411901EBEA70A1693844081A5B
:100B8000401EA0612078C00602D42046AFF300804A
:100B9000099828B1D4E901219047206A401C2062BD
:100BA0002078C00622D52046AFF300801EE0002E3C
:100BB00004DBB34502DD01A8805D00E03020D4E90C
:100BC00001219047206A401C2062761CAAF1010096
:100BD0005FEA000A0AD100F07FF8C0680168405C53
:100BE000D4E901219047206A401C2062281EA5F10B
:100BF0000105DCDC07E0D4E9012118F8010B90477E
:100C0000206A401C2062381EA7F10107F3DC204651
:100C1000AFF30080032011B041E6000001694A1CD7
:100C200002610878704700B58FB0CDE9013100212D
:100C3000059105497944CDE9031011466846FFF74F
:100C400075FC0FB000BD0000E5FFFFFF0A6802F869
:100C5000010B0A607047D1E900239A4202D2531C6B
:100C60000B601070704710B5436913B1AFF300808B
:100C700001E0FFF7F5FB012010BD127800F124011F
:100C80000A7000224A700122EDE711684FF0FF322E
:100C9000E9E74FF000020429C0F0128010F0030CC5
:100CA0003FF420ADCCF1040CBCF1020F18BF00F8EA
:100CB000012BA8BF20F8022BA1EB0C01FFF712BDFE
:100CC0005FEAC17C24BF00F8012B00F8012B48BF6C
:100CD00000F8012B704700000048704740040020D6
:100CE000004870472004002030B5B0F10A024FEAF6
:100CF000900E71F100034EEA817EB0EB0E0061EBC5
:100D000091014FEA101E4EEA017E10EB0E0041EBFE
:100D100011114FEA102E4EEA016E10EB0E0041EB5E
:100D200011214FEA104E4EEA014E10EB0E0041EB3E
:100D30001141401841F100014FEAD00040EA4170F2
:100D40004FEAD10110EB80054FEA810444EA907428
:100D500044EB01046D1944EB0404521BA3414FF012
:100D6000000348BF0A3200D530BD401C41F10001EC
:100D700030BD00002DE9F0411F46044603260168FE
:100D8000072A01F4006004DB08B116A505E016A5EA
:100D900003E008B115A500E015A521F010002060C2
:100DA000A069C01EA0610FB1401EA0612046AFF334
:100DB00000804FB1D4E9012138469047206A401C99
:100DC0002062C01C206206E0206AFAE7D4E9012113
:100DD00015F8010B9047761EF8D22046AFF300803D
:100DE000BDE8F0814E414E006E616E00494E4600F6
:100DF000696E66002DE9F047814616468AB035488F
:100E000078440DC88DE80D0032487844801C03AC4E
:100E10000DC884E80D0041F69B300844372190FB53
:100E2000F1F290FBF1F5A5F1800501FB12041B3CEA
:100E300002D56442012000E00020DFF898A080463F
:100E40000027FA44AAF1BE0A0EE0E0070AD03246B3
:100E5000684607EB470101230AEB810100F046FBDE
:100E60008DE8070064107F1C002CEED1194F7F44E1
:100E7000AE3F19E0E80715D007EB04100DF1180A92
:100E800090E80E008AE80E00C068F04201D198197F
:100E900008903246012306A903A800F027FB03AB04
:100EA00083E807006D10641C002DE3D14FF00103AF
:100EB00032466946B8F1000F03A802D000F001FBEA
:100EC00001E000F013FBC9E90001C9F808200AB0ED
:100ED000BDE8F087289B00000048704720040020F0
:100EE0007546FFF7F9FFAE4605006946534620F008
:100EF0000700854618B020B5FFF7D6F9BDE82040B9
:100F00004FF000064FF000074FF000084FF0000BC5
:100F100021F00701AC46ACE8C009ACE8C009ACE878
:100F2000C009ACE8C0098D46704710B50446AFF360
:100F300000802046BDE81040FFF7A2B94FF0013C09
:100F400050F8042B51F8043B9A4221D1A2EB0C0338
:100F5000934313EACC1317D150F8042B51F8043BF8
:100F60009A4215D1A2EB0C03934313EACC130BD195
:100F700050F8042B51F8043B9A4209D1A2EB0C0320
:100F8000934313EACC13DBD04FF00000704700BF4F
:100F9000D01A01BAB1FA81F101F0180122FA01F078
:100FA000CB40C1F12001DBB2C0B2C01A2CFA01F370
:100FB000D11A914311EAC311E6D1704701491820B3
:100FC000ABBEFEE72600020070475FEA400C08BF98
:100FD00091F0000F4FEA8C234FEAC12243EA5151AE
:100FE0004FEA1C5018BF00F5F0404FEA300018BF20
:100FF00041F000415FEA6C5C00F02980BCF1FF3FEA
:1010000008BF40F080407047130C06BF12044FF039
:10101000100C4FF0000C130E04BF12020CF1080C60
:10102000130F04BF12010CF1040C930F04BF9200C4
:101030000CF1020CD30F04BF52000CF1010C11464D
:101040004FF00002A0F11F00A0EB0C00704711F060
:10105000004F08BF704731F000413FF4D5AF0B0C93
:1010600006BF09044FF0100C4FF0000C0B0E04BF2C
:1010700009020CF1080C0B0F04BF09010CF1040C60
:101080008B0F04BF89000CF1020CCB0F04BF490089
:101090000CF1010CCCF12003A0EB0C0022FA03F3BD
:1010A00002FA0CF241EA030100F10100704720F05E
:1010B0007F4C80EA030023F07F47ACEB070303F586
:1010C0007C5300F0004003F1FF032DE980494FEA13
:1010D000154B09B44FEA144325EA0B4E24EA0348A2
:1010E0000FF2042606EB132749083E785FEA320226
:1010F00003FB0667C7F5000707FB06F64FEA543700
:101100004FEAD64606F1020607FB066CCCF1005CFE
:101110004FEA1C472CEA074C07FB06F40CFB06F5CC
:1011200004EB15464FEA961634BF00204FF00040FE
:101130004FEAD13706FB07FC4FEA1C4C0CFB0BF7C0
:10114000D21B03FB0CF761EB07010CFB0EF7B0EBB6
:10115000074072EB17420CFB08F734BFA2EB0742C3
:10116000B2EB074261EB17414FEA0C444FEA91079B
:1011700006FB07FC4FEA1C4C0CFB0BF7B0EBC7401F
:1011800072EB573203FB0CF734BFA2EBC742B2EB52
:10119000C74261EB57310CFB0EF7B0EBC70072EBA7
:1011A00057720CFB08F734BFA2EBC702B2EBC702C1
:1011B00061EB5771039F4FEA816141EA921104EBA1
:1011C000CC044FEAD1374FEA826206FB07FC42EAC1
:1011D00090124FEA80604FEA1C4C0CFB0BF7D21BBD
:1011E00003FB0CF761EB07010CFB0EF7B0EB0740BC
:1011F00072EB17420CFB08F734BFA2EB0742B2EBCD
:10120000074261EB17414FEA8C554FEA910704EB17
:101210009C2406FB07FC4FEA1C4C0CFB0BF7B0EBC5
:10122000C74072EB573203FB0CF734BFA2EBC74247
:10123000B2EBC74261EB57310CFB0EF7B0EBC700C6
:1012400072EB57720CFB08F734BFA2EBC702B2EB8C
:10125000C70261EB577115EB4C254FEA816141EAFA
:1012600092114FEA82624FEAD13742EA901206FBAE
:1012700007FC44F100044FEA80604FEA1C4C0CFB71
:101280000BF7D21B03FB0CF761EB07010CFB0EF70E
:10129000B0EB074072EB17420CFB08F734BFA2EB30
:1012A0000742B2EB074261EB174115EB1C154FEA01
:1012B000813141EA92414FEA823242EA90424FEA5A
:1012C00080304FEA0C7644F1000448EA03434EEACA
:1012D0000B484FF0000EB2EB080C71EB030724BF74
:1012E000624639464EEB0E0E4FF0000B001852418D
:1012F00049414BEB0B0BB2EB080C71EB03077BF195
:10130000000B24BF624639464EEB0E0E4FF0000B29
:101310000018524149414BEB0B0BB2EB080C71EB3F
:1013200003077BF1000B24BF624639464EEB0E0EDD
:1013300051EA020718BF46F0010616EB0E7655F18A
:10134000000254F1000103D5BDE88901BDE8008821
:10135000BDE88901BDE80048B619524141EB0101E1
:10136000A3F10103704780807F7E7D7C7B7A797852
:10137000777676757473727171706F6E6E6D6C6C5A
:101380006B6A6A69686867666665646463636261FC
:101390006160605F5F5E5E5D5D5C5C5B5B5A5A597D
:1013A00059585857575656555555545453535252E9
:1013B0005251515050504F4F4F4E4E4D4D4D4C4C41
:1013C0004C4B4B4B4A4A4A4949494848484747478A
:1013D00047464646454545444444444343434342C7
:1013E000424242414141002B9C4630D477002BD0F1
:1013F0001CB54FEA370703B44FF010004FF010014F
:10140000BAF1000F06D0BCF1000FDCBF40F00800BD
:1014100040F008014FF000000FBCBDE810400BF198
:10142000010BBBF1010F08BF5FEA170722BF12F1E2
:10143000010211F101014FF0004143F1000300F0FE
:10144000004043EA00007047F9D35708D0E746EA66
:10145000064613F1400F4FEA16461FDD13F1200F29
:10146000DFBF16430A46002120335B42BED0C3F1E2
:10147000200746EA064602FA07F74FEA164646EA0A
:101480000706C3F1200722FA03F201FA07F721FA4F
:1014900003F14FF0000342EA0702A7E746EA02061B
:1014A00046EA06464FEA164646EA0106BCBF46EA49
:1014B0000646360C4FF000034FF000024FF00001DB
:1014C00094E72DE9804C9A46934670B491E8380031
:1014D00007C831EA400C48BF34EA430C03D5FFF794
:1014E000E6FDFFF780FFF0BCBDE8008C2DE9804CE5
:1014F0009A46934670B491E8380007C810F0804FC0
:1015000008BF13F0804F03D100F005F8FFF76BFF21
:10151000F0BCBDE8008C20F07F4780EA030023F098
:101520007F4C07EB0C03A3F57C5300F00040A3F1C4
:10153000FE0392F0000F00F0B38095F0000F00F072
:1015400077802DE901494FEA11404FEA144621EA1C
:10155000004800FB06FC24EA064708FB06F607FBEA
:1015600008F800FB07F718EB06484CEB164C4FEA5F
:10157000124B18EB07484FEA15464CEB174022EA8E
:101580000B4E0BFB06FC25EA06470EFB06F607FB97
:101590000EFE0BFB07F71EEB064E4CEB164C4FF006
:1015A00000061EEB074E4CEB174B18EB0B0840F1F7
:1015B000000018EB0E0B58EB000840F100008F1AEA
:1015C0004FF000013CBFC943661B14BFB5EB040CD0
:1015D00000213CBFC943F61B4FEA17444EEA8E0E6A
:1015E00027EA04454FEA1C4704FB07622CEA074C34
:1015F00005FB07F70CFB05F604FB0CFC16EB074696
:1016000042EB174216EB0C4642EB1C421BEB060664
:1016100058EB0202414146EA9E0601D5BDE8018928
:10162000B619524141EB0101A3F10103BDE8018963
:101630004FEA14454FEA114724EA054621EA074CD0
:1016400005FB07F406FB07F70CFB06F105FB0CFC9A
:1016500011EB074144EB17444FEA124711EB0C41E1
:1016600044EB1C4422EA074C05FB07F206FB07F794
:101670000CFB06F605FB0CFC16EB074642EB17428B
:1016800016EB0C4642EB1C456A1854F1000148BFAA
:101690007047B619524141EB0101A3F101037047B4
:1016A00095F0000F37D04FEA11424FEA144721EA74
:1016B000024624EA074C02FB07F106FB07F70CFB86
:1016C00006F402FB0CFC14EB074441EB17414FEA14
:1016D000154714EB0C4441EB1C4125EA074C02FB77
:1016E00007F506FB07F70CFB06F602FB0CFC16EBF6
:1016F000074645EB174516EB0C4645EB1C42121905
:1017000051F1000148BF7047B619524141EB010148
:10171000A3F1010370474FEA14454FEA114724EA49
:10172000054621EA074C05FB07F106FB07F70CFB12
:1017300006F24FF0000605FB0CFC12EB074241EBF2
:10174000174112EB0C4251EB1C4148BF70479218F5
:1017500041EB0101A3F101037047000010B5002225
:101760000221064800F05DFA00220421044800F03E
:1017700058FA04490020087010BD0000000802401B
:10178000000002402C010020FFF7E8BF10B50A4C12
:10179000207800280ED101220221084800F041FAE9
:1017A00001220421064800F03CFA00F03FFA606094
:1017B0000120207010BD00002C0100200008024014
:1017C0000000024010B50B4C2078012811D100F028
:1017D0002DFA6168401A32280BD3002202210648F4
:1017E00000F01FFA00220421044800F01AFA002039
:1017F000207010BD2C0100200008024000000240B3
:10180000FEE70000064A10B553680649064C096811
:10181000B1FBF4F141435068C01A8842FBD310BDBC
:10182000001000E05000002040420F000648016810
:1018300041F0807101600548016841F001010160DB
:101840000021416070470000FCED00E0001000E066
:101850007047000018B1012803D0002070470248EB
:101860007047024870470000EC010020340200205D
:10187000044951F82010012801D008467047484219
:1018800070470000BC000020044951F820100128D6
:1018900001D008467047484270470000C40000204D
:1018A00010B50020FFF7D6FF28B13C2101F09EF9CA
:1018B000002000F00FF80120FFF7CCFF002807D030
:1018C0003C2101F093F9BDE81040012000F002B87E
:1018D00010BD000010B50446FFF7BCFF002108B1A1
:1018E00000684162044840F82410083040F8241091
:1018F000083040F8241010BDB400002010B5044694
:10190000FFF7A8FF00281CD00068406A0D4A52F873
:10191000241042F82400411AB1F5004F02DBA1F572
:10192000803104E011F5004F01DA01F580310548FE
:10193000103040F82410083850F82420114440F8A2
:10194000241010BDB400002072B6FEE72DE9F0416E
:101950000446876D00F06AF9064694F835000025C4
:10196000022806D08020606584F834500120BDE84C
:10197000F0812068016821F016010160206841694A
:1019800021F080014161206C08B9A06C20B1206871
:10199000016821F0080101602068016821F001015F
:1019A00001600CE000F042F9801B052807D92020D7
:1019B0006065032084F8350084F83450D7E7206848
:1019C0000068C007EED194F85C103F208840B860F2
:1019D000012084F8350084F834500020C7E790F8DF
:1019E0003510022903D0802141650120704705216F
:1019F00080F835100068016821F0010101600020C5
:101A00007047000070B5044600F010F90546601CF0
:101A100002D004480078044400F008F9401BA042BA
:101A2000FAD370BD440000202DE9F84FDFF8BCA1C7
:101A30000022012503264FF00F090AF1040BAAF139
:101A4000040E00BF0B6805FA02F42340A34270D1D4
:101A50000F7907F00307012F01D0022F16D18768F5
:101A60004FEA420806FA08FC27EA0C07D1F80CC036
:101A70000CFA08FC4CEA070CC0F808C04768A743FA
:101A80000C79C4F3001494403C4344600C79E44363
:101A9000A4070AD0C4684FEA420C06FA0CF7BC430C
:101AA0008F6807FA0CF72743C7600C7904F003042A
:101AB000022C12D1D40800EB840CDCF8204057072C
:101AC000FF0E09FA07F824EA0804D1F8108008FA92
:101AD00007F848EA0408CCF8208004684FEA420C72
:101AE00006FA0CF7BC430F7907F0030707FA0CF767
:101AF000274307604C6814F4403F70D03C4C276883
:101B000047F480472760246822F0030704F48044E8
:101B10000094384C07EB040CDCF8084897074FEAB0
:101B2000177809FA08F7BC43334FB84202D10027AF
:101B300024E054E0314FB84201D101271EE0304F7C
:101B4000B84201D1022719E02E4FB84201D1032734
:101B500014E02D4FB84201D104270FE02B4FB842BB
:101B600001D105270AE02A4FB84201D1062705E036
:101B7000284FB84201D1072700E0082707FA08F7E5
:101B80002743CCF80878DAF800405746D1F804C06B
:101B90009C435FEACC2C00D51C433C60DBF8004042
:101BA0005F46D1F804C09C435FEA8C2C00D51C43EF
:101BB0003C60DEF800407746D1F804C09C435FEA01
:101BC0008C3C00D51C433C60084F083F3C68D1F872
:101BD00004C09C435FEACC3C00D51C433C60521CD3
:101BE000102AFFF42FAFBDE8F88F0000083C014039
:101BF000443802400030014000000240000402402E
:101C000000080240000C0240001002400014024094
:101C100000180240001C02400069084000D001206A
:101C200070470AB1816170470904FBE70148806889
:101C3000704700004400002070B5040025D094F8DF
:101C40003D00002520B984F83C50204600F052FAAF
:101C5000242084F83D002068016821F00101016022
:101C60002068016841F4004101602068016821F4A6
:101C70000041016000F0A6FB4D4A6168914201D825
:101C80004C4900E04C49884201D2012070BD4B49CB
:101C90002368B0FBF1F15E6826F03F060E435E60FC
:101CA0006368934206D94FF4967359434FF47A739D
:101CB000B1FBF3F12368491C1E6A26F03F0631434D
:101CC00019626168914210D84900401EB0FBF1F2E0
:101CD000521CC2F30B02042A01D2042022E0B0FB02
:101CE000F1F0401CC0F30B001CE0A268F2B301EB62
:101CF000C10303EB0116431EB3FBF6F35B1C43F475
:101D000080431B0549D092B301EBC10202EB0111E4
:101D1000401EB0FBF1F0401CC0F30B0040F48040CB
:101D200040F400402168CA694CF6FF739A4310439F
:101D3000C861D4E9071001432068026822F0C0029C
:101D400011430160D4E9030101432068826848F22D
:101D5000FF339A4311438160D4E9050108432168A8
:101D6000CA6822F0FF021043C86001E00EE016E0EE
:101D70002068016841F0010101602564202084F899
:101D80003D00256384F83E50002070BD01EB410604
:101D9000431EB3FBF6F35B1CB3E70120C2E701EB84
:101DA0004101401EB0FBF1F0401CC0F30B00B7E74F
:101DB000A086010080841E0000093D0040420F0003
:101DC0002DE9FF4F83B09A46DDE91187934604461B
:101DD000DDF84090FFF72AFF054694F83D002028E3
:101DE00070D11923012274492046009501F086FC28
:101DF0000028F5D194F83C00012863D0012084F834
:101E00003C0020680168C90703D1016841F0010165
:101E100001602068016821F400610160222084F8DB
:101E20003D00402084F83E0000262664C4F824903B
:101E3000A4F82A80608D20856048E062CDE90075B5
:101E400053465A462046049901F05AFB002879D19E
:101E5000208DD0B1012821D00228206824D04169EA
:101E600080690090208D032866D801282BD0544922
:101E700002283B464FF00002009557D08846204686
:101E800001F03CFC00285DD13AE02068416981699D
:101E90000091016841F4007101607DE020680168F3
:101EA00021F480610160F0E7016821F48061016044
:101EB0002068016841F4006101602068416980691F
:101EC000009069E075E02A463946204601F0BCFCE6
:101ED00088BB54E02068016841F40071016020680B
:101EE0000069616A0870606A401C6062218D491E49
:101EF0002185618D491E618521680969017042E073
:101F00002068016821F48061016020680069616ACD
:101F10000870606A401C6062208D401E2085608DC4
:101F2000401E60853B46002241460095204601F058
:101F3000E5FB00B9CEE705E02A463946204601F028
:101F400083FC18B1012007B0BDE8F08F206800695C
:101F5000616A0870606A401C6062208D401E81B218
:101F60002185608D401E608520684269D2435207FA
:101F700012D4032903D1016821F480610160206833
:101F80000069616A0870606A401C6062208D401EB2
:101F90002085608D401E6085208D00287FF462AF13
:101FA000202084F83D0084F83E6084F83C600020E6
:101FB000C9E70220C7E70000020010000000FFFF91
:101FC000040001002DE9FF4F83B09A46DDE9119727
:101FD00093460446DDF84080FFF728FE054694F856
:101FE0003D0020287FD11923012240492046009539
:101FF00001F084FB002876D194F83C00012872D0CF
:10200000012084F83C0020680168C90703D10168F9
:1020100041F0010101602068016821F40061016064
:10202000212084F83D00402084F83E0000262664EC
:10203000C4F82480A4F82A90608D20852C48E062A2
:10204000CDE9007553465A462046049901F0D6FA68
:1020500070B930E02A463946204601F02DFC58B1CF
:10206000206C042804D12068016841F400710160EB
:10207000012007B0BDE8F08F606A21680078086130
:10208000606A401C6062218D491E89B22185628D83
:10209000521E628522685369DB435B070BD469B12A
:1020A00000781061606A401C6062208D401E2085AF
:1020B000608D401E6085208D0028CBD12A46394690
:1020C000204601F0EFFA0028CAD154F83D0B016810
:1020D00041F400710160202004F81E09E67766775C
:1020E0000020C6E7FFE70220C3E70000020010005F
:1020F0000000FFFF10B586B0044614216846FEF7C5
:10210000EFFA13492068884220D112480021026862
:1021100042F002020260006800F002000590C02058
:1021200000901220CDE901010320039004200490C7
:1021300069460948FFF778FC06481030016841F409
:1021400000110160006800F40010059006B010BD99
:1021500000540040303802400004024002488168C8
:102160000278114481607047440000200B4810B58C
:10217000016841F400710160016841F4806101600F
:10218000016841F480710160032000F06FF80F20B6
:1021900000F006F800F024F8002010BD003C0240DA
:1021A00070B50D4D04464FF47A712878B1FBF0F00C
:1021B0000A490968B1FBF0F000F00CFB48B9102C9B
:1021C00007D200222146501E00F030F800206C603B
:1021D00070BD012070BD00004400002050000020B0
:1021E0000A4808B5016841F480410160006800F4C4
:1021F000804000900548001F016841F08051016057
:10220000006800F08050009008BD00004438024093
:10221000002809DB00F01F020121914040098000E5
:1022200000F1E020C0F8001170470000F0B40E4B40
:102230001B680C46C3F30223C3F10705042D00D924
:102240000425191D072901D2002300E0DB1E012609
:1022500006FA05F1491E214099409E40761E16401F
:102260003143F0BC03F050BA0CED00E0064900F039
:10227000070208684FF6FF03184040EA0220034AAD
:1022800010430860704700000CED00E00000FA0504
:102290002DE9F0470E46050065D0DFF81481D8F827
:1022A0000000F7B200F00700B04207D288F80070D3
:1022B000D8F8000000F00700B04254D128683D4C27
:1022C000810712D5400703D5206840F4E050206014
:1022D0002878000703D5206840F46040206020681B
:1022E000A96820F0F000084320602878C0072DD0AE
:1022F000304968680839012812D0022813D0032811
:1023000011D00968890700292DDA216821F003011D
:1023100001432160FFF78AFC814641F2883A0EE0D2
:1023200009688903EFE709688901ECE7FFF77EFC9C
:10233000A0EB0901514502D90320BDE8F0872068D0
:10234000696800F00C00B0EB810FEFD1D8F80010F5
:10235000404601F00701B14207D90770006800F05C
:102360000700B04201D00120E7E72878400705D5F3
:102370002068E96820F4E0500843206028780007CE
:1023800006D52068296920F4604040EAC100206039
:1023900000F038F82168084AC1F30311515CC840C5
:1023A0000649086006480068FFF7FAFE0020C4E707
:1023B000003C0240083802402895000850000020E8
:1023C000480000200448054900680968044AC1F330
:1023D0008221515CC84070475000002008380240FC
:1023E000389500080448054900680968044AC1F3A3
:1023F0004231515CC840704750000020083802400C
:1024000038950008154810B5006810F00C02144803
:1024100013D01449042A0FD0082A0ED10F4C241FC0
:102420002268236802F03F025B0207D52068C0F3F0
:102430008810A0FB010106E0084610BD2168C1F329
:102440008811A1FB00010023FDF740FF2168C1F3C3
:102450000141491C4900B0FBF1F010BD08380240B1
:102460000024F40040787D012DE9F84F04006ED07F
:102470002078DFF84C93C007A9F104054AD009F190
:1024800004000168C1F38101012908D00068C0F38C
:10249000810002280AD1D9F80000400206D5286838
:1024A000800337D560680028E1D033E06068B0F57C
:1024B000803F10D0B0F5A02F286810D020F48030D5
:1024C0002860286820F4802028606068A8B1FFF7A1
:1024D000ADFB06460DE0286840F48030F4E740F498
:1024E00080202860F7E700BFFFF7A0FB801B64286F
:1024F00073D828688003F7D50CE0FFF797FB0646F2
:1025000005E000BFFFF792FB801B6428F0D8286825
:102510008003F7D42078DFF8AC8280074FF0000A00
:102520003ED5A748001D016811F00C0F08D00068C7
:10253000C0F3810002280BD1D9F80000400207D473
:102540002868800716D5E068012800D112E033E141
:10255000E068B8B10120C8F80000FFF767FB064645
:1025600005E000BFFFF762FB801B0228C0D8286887
:102570008007F7D52868216920F0F80040EAC100FB
:1025800028600DE0C8F800A0FFF750FB064604E005
:10259000FFF74CFB801B02281FD828688007F7D460
:1025A0002078000722D5864F87486169703771B15E
:1025B00001210160FFF73AFB064604E0FFF736FB16
:1025C000801B022809D838688007F7D50EE0C0F8CC
:1025D00000A0FFF72BFB064605E082E0FFF726FB95
:1025E000801B02287DD838688007F7D42078400700
:1025F00068D5DFF8CCB100270BF13C0BDBF800000D
:10260000C0000BD4DBF8001041F08051CBF8001073
:10261000DBF80000012700F0805000906B4E30681E
:10262000C00510D4306840F480703060FFF7FEFAC7
:10263000009005E0FFF7FAFA0099401A022850D8F6
:102640003068C005F6D55E4EA0686C3601280FD004
:102650000528306810D020F001003060306820F08C
:1026600004003060A068B8B1FFF7E0FA00900FE016
:10267000306840F00100F4E740F004003060F7E714
:10268000FFF7D4FA0099411A41F28830814266D8A6
:1026900030688007F4D50EE0FFF7C8FA009007E035
:1026A000FFF7C4FA0099411A41F28830814256D8A6
:1026B00030688007F4D42FB1DBF8001021F080518E
:1026C000CBF80010A069C8B33D49091D0968C1F3E2
:1026D000810102294AD00228504607D0C8F860007C
:1026E00000E03CE0FFF7A2FA04463BE04746C8F8AA
:1026F0006000FFF79BFA064605E000BFFFF796FA79
:10270000801B02282BD828688001F7D4D4E9070160
:102710000843A16A2E4A490802EB0141626A41EA74
:102720008211084394F82C1040EA0161C9F80010A6
:1027300001203866FFF77AFA044606E03EE000BF63
:10274000FFF774FA001B022809D828688001F7D522
:1027500034E000BFFFF76AFA001B022802D9032009
:10276000BDE8F88F28688001F4D427E00128F7D06D
:10277000D9F80000E26900F4800191421CD1226A7C
:1027800000F03F01914217D147F6C071626A0140E3
:10279000B1EB821F10D1A26A4FF0FF3300F4403139
:1027A00003EB5202B1EB024F06D194F82C1000F06B
:1027B0007060B0EB016F01D00120D1E70020CFE7BE
:1027C0000438024000004742800E4742007000403B
:1027D0000000FFFF10B5401EB0F1807F01D3012043
:1027E00010BD4FF0E02460610F21601702F08CFFF4
:1027F0000020A06107202061002010BD70477047B5
:1028000070B590F83C20012A32D0012480F83C4079
:10281000022280F83D2003685A689D6822F0700605
:102820000A6832435A60134B02689A4214D0B2F1DC
:10283000804F11D0104B9A420ED0104B9A420BD0C1
:102840000F4B9A4208D00F4B9A4205D00E4B9A423A
:1028500002D00E4B9A4204D1496825F080031943F7
:10286000916080F83D40002180F83C10084670BD22
:10287000022070BD0000014000040040000800403C
:10288000000C0040000401400040014000180040DE
:1028900010B5040003D094F83D0010B107E001200A
:1028A00010BD002084F83C00204600F01FF80220F4
:1028B00084F83D00211D206802F072FA012084F89E
:1028C000460084F83E0084F83F0084F8400084F815
:1028D000410084F8420084F8430084F8440084F8FE
:1028E000450084F83D00002010BD000008B5114AE5
:1028F00001681148914208D1016841F480310160BA
:10290000006800F48030009008BD0C4A9142FBD171
:10291000016841F4003101600068002200F40030D9
:10292000009011461920FFF781FCBDE808401920EE
:10293000FFF76EBC004001404438024000440140B3
:1029400090F83D10012901D001207047022180F844
:102950003D100168CA6842F00102CA60006811496E
:10296000884214D0B0F1804F11D00F4988420ED068
:102970000E4988420BD00E49884208D00D49884242
:1029800005D00D49884202D00C49884204D18168A3
:1029900001F00701062903D0016841F0010101603F
:1029A0000020704700000140000400400008004083
:1029B000000C0040000401400040014000180040AD
:1029C00070B5044690F83C000025012817D0012678
:1029D00084F83C60022084F83D002068826822F080
:1029E000770222F47F4282600868502838D00DDCDC
:1029F00020284FD005DC90B3102811D14AE00220E6
:102A000070BD302846D040280AD13BE060282FD046
:102A100070280DD0B0F5805F03D0B0F5005F12D004
:102A2000012584F83D60002084F83C00284670BDF4
:102A3000CB68D1E90121206802F02BFA2068816877
:102A400041F0770109E0CB68D1E90121206802F06B
:102A500020FA2068816841F480418160E1E719E053
:102A6000CA684968206802F0E9FA5021206806E047
:102A7000CA684968206802F0F2FA6021206802F012
:102A800012FACEE7CA684968206802F0D7FA4021F6
:102A90002068F4E7226801461046F0E72DE9F0418E
:102AA0000D46040003D094F83D0018B108E0012061
:102AB000BDE8F081002084F83C00204600F040F89A
:102AC000022084F83D002068816844F207029143A7
:102AD0008160211D206802F063F922689068916985
:102AE000166A2B68AF69034340F20330814341EA21
:102AF0000721A868EF6908434FF6FC418843E9685D
:102B000040EA0720014328692F6A000140EA0730A4
:102B1000084369686D6926F0AA0646EA0515294347
:102B200093602268906154F8460B0162012004F81A
:102B30001F09E0752076E0762077A0750020B7E7C2
:102B400070B586B0044614216846FDF7C9FD224ED3
:102B5000226800252148C02402210123B24219D154
:102B60001E4A1032166846F002061660126802F01D
:102B700002020592026842F001020260006801AAA6
:102B8000009482E82A0000F00100CDE904106946B3
:102B900013481CE0134EB2421BD1104A143216687F
:102BA00046F002061660126802F002020592026800
:102BB00042F0040202600068009400F004000590F6
:102BC000032001AA049082E82A0069460648FEF71D
:102BD0002BFF06B070BD00000004004030380240FA
:102BE00000000240000401400008024070B590F867
:102BF0003E60044690F83F5090F8423090F84320F1
:102C0000022021B104290ED0012E1BD114E0012E87
:102C100018D1012B16D184F83E0084F8420001221D
:102C20000021206820E0012D0CD1012A0AD184F86E
:102C30003F0084F8430014E0012D03D1012B01D1A2
:102C4000012A01D0012070BD84F83E0084F83F00C5
:102C500084F8420084F8430001220021206802F039
:102C60000BF901220421206802F006F920680168AE
:102C700041F001010160002070BD70472DE9F04175
:102C800004460068C66805694FF00007A90713D518
:102C9000B10711D5F91E01610120207720688069F4
:102CA0008007204602D0FFF7E8FF04E000F0A8F814
:102CB000204600F03AF92777680716D5700714D533
:102CC00021686FF004000861022020772068806985
:102CD00010F4407F204602D0FFF7CFFF04E000F061
:102CE0008FF8204600F021F92777280715D53007FF
:102CF00013D521686FF00800086104202077206850
:102D0000C0698007204602D0FFF7B7FF04E000F05B
:102D100077F8204600F009F92777E80616D5F0067F
:102D200014D521686FF01000086108202077206812
:102D3000C06910F4407F204602D0FFF79EFF04E0F8
:102D400000F05EF8204600F0F0F82777E80708D09A
:102D5000F00706D021686FF001000861204600F0FE
:102D600049F9280608D5300606D521686FF080009D
:102D700008612046FFF742FD680608D5700606D5B3
:102D800021686FF040000861204600F055F9A80660
:102D90000AD5B00608D521686FF0200008612046EA
:102DA000BDE8F041FFF72BBDBDE8F08110B586B05E
:102DB000044614216846FDF793FC0E4920688842BA
:102DC00015D10D480021026842F01002026000682F
:102DD00000F010000590602000900220CDE9010174
:102DE0000320CDE9031069460448FEF71DFE06B036
:102DF00010BD000000400140303802400010024089
:102E0000704770B5044690F83C0000260D46012836
:102E10000FD0012084F83C006AB1042A1DD0082A92
:102E20002FD00C2A3FD00126002084F83C003046E9
:102E300070BD022070BD206802F03EF820688169F4
:102E400041F0080181612068816921F004018161FC
:102E5000206881692A69114311E0206802F05CF85A
:102E60002068816941F4006181612068816921F4F1
:102E700080618161206881692A6941EA022181615A
:102E8000D2E7206802F07EF82068C16941F00801AD
:102E9000C1612068C16921F00401C1612068C16974
:102EA0002A69114311E0206802F0A0F82068C16986
:102EB00041F40061C1612068C16921F48061C16190
:102EC0002068C1692A6941EA0221C161ACE710B5F5
:102ED000040003D094F83D0010B107E0012010BDBC
:102EE000002084F83C00204600F01EF8022084F800
:102EF0003D00211D206801F053FF012084F84600A9
:102F000084F83E0084F83F0084F8400084F84100D3
:102F100084F8420084F8430084F8440084F84500B3
:102F200084F83D00002010BD7047704710B504467E
:102F3000022249B104290ED0082913D094F8410087
:102F4000012816D0012010BD94F83E000128F9D1C7
:102F500084F83E200FE094F83F000128F2D184F875
:102F60003F2008E094F840000128EBD184F840208D
:102F700001E084F841200122206801F07DFF16491C
:102F80002068164A884201D0904203D1436C43F432
:102F9000004343642068884213D0B0F1804F10D0C2
:102FA0000F4988420DD00F4988420AD00E49884205
:102FB00007D0904205D00D49884202D00C49884282
:102FC00004D1816801F00701062903D0016841F0AE
:102FD00001010160002010BD00000140000401401B
:102FE0000004004000080040000C00400040014088
:102FF0000018004000B500680D4985B0884214D122
:103000000C4B0DF1040C1A1F111F081F8CE80F0048
:10301000001F031F0090143A1439103800F0AAFD65
:1030200005B05DF804EB01F04BB905B000BD000040
:10303000004401403800002070477047704700008E
:10304000F8B5016804460868CA684B6910F00F0FAC
:103050004FF0000559D003F0010602F49077374392
:1030600065D0C10705D0D10503D5616C41F00101E0
:103070006164410705D5D90703D0616C41F00201B5
:103080006164810705D5D90703D0616C41F0040163
:103090006164010707D502F02001314303D0616C60
:1030A00041F008016164616C00293AD0800604D5C2
:1030B000900602D5204602F0C0F920684069616C94
:1030C000C0F38010090700D460B3204602F08EF9E7
:1030D00020684069400621D52068143050E8001F60
:1030E00021F0400140E80012002AF5D1E06BA8B1C0
:1030F0006E490165E06BFEF772FC002811D0E06BB1
:10310000016D01B0BDE8F040084783060FD5930676
:103110000DD52046BDE8F84002F08FB92046FFF7F4
:103120008DFFF8BD2046FFF789FF6564F8BD266B6B
:103130002023012E7DD1C6067BD5D60679D5086819
:103140004868009048694FF00206400641D5E16B9F
:10315000086840680004000CE8D0A28D8242E5D9DE
:10316000E085C869B0F5807F2DD020680C3050E82C
:10317000001F21F4807140E80012002AF5D1206878
:10318000143050E8001F21F0010140E80012002A2D
:10319000F5D12068143050E8001F21F0400140E8CC
:1031A0000012002AF5D184F84230256320680C30E3
:1031B00050E8001F21F0100140E80012002AF5D16C
:1031C000E06BFEF7C3FB6663A08DE18D401A81B210
:1031D0002AE0A08DE18D401A81B2E08D0028A5D0B3
:1031E0000029A3D022680C3252E8000F20F490701E
:1031F00042E80007002FF5D12068143050E8002F76
:1032000022F0010240E80027002FF5D184F8423077
:10321000256320680C3050E8002F22F0100240E8AF
:103220000023002BF5D166632046FFF706FFF8BDAB
:10323000FFE705062BD5150629D594F8410021286E
:10324000F5D1A068B0F5805F01D12069B0B1206AE6
:10325000411C2162216800784860E08C401E000417
:10326000000CE084E3D12068C16821F08001C160D6
:103270002068C16841F04001C160D8E7206A008839
:10328000C0F308004860206A801C2062E5E7400621
:10329000CDD55006CBD5CA68204622F04002CA6080
:1032A00084F8413000F012F9C1E70000DD53000856
:1032B00070B5040004D094F84100002510B106E078
:1032C000012070BD84F84050204600F023F82420EF
:1032D00084F841002068C16821F40051C160204693
:1032E00002F00CF92068016921F490410161206825
:1032F000416921F02A0141612068C16841F400510F
:10330000C1606564202084F8410084F84200656350
:10331000002070BDF0B587B0044614216846FDF763
:10332000DFF92149206888423BD120480024016808
:1033300041F480110160006800F4801005901B4882
:103340001038016841F004010160016801F00401D6
:103350000591016841F0080101600068022500F054
:10336000080005904FF48050CDE9000502AA03261D
:10337000082782E8D00069460D48FEF755FB042077
:10338000CDE9000502AA694682E8D0000948FEF7A7
:103390004BFB002211463520FEF748FF3520FEF793
:1033A00037FF07B0F0BD0000005000404038024039
:1033B00000080240000C024090F84230202B01D05F
:1033C0000220704721B11AB10023036302F01CB937
:1033D000012070470068114988421DD11048114BE7
:1033E00042780D2A0FD00A2A0DD041883F2904D2F5
:1033F00041880B44491C41801A7009490122491C2B
:103400000948FFF7D9BF41880029F6D0428800213A
:10341000995401210170F0E770470000005000400E
:1034200010000020580100200C0300202DE9F84373
:10343000044690F84100984616460D46202802D0D2
:103440000220BDE8F88385B17EB1002060642120B0
:1034500084F84100FEF7EAFBA6848146E684A06872
:103460002027B0F5805F02D003E00120E9E7206962
:1034700010B12E4600250EE000260CE080212046EB
:1034800002F0DDF8A8B9C6B116F8010B2168486052
:10349000E08C401EE084E08C4B464FF00002CDF8FB
:1034A00000800028EAD14FF04001204602F0C7F822
:1034B00040B184F841700320C3E735F8020BC0F334
:1034C0000800E3E784F841700020BAE77047FEE7A0
:1034D00001684A69D24352050FD46FF480624A6191
:1034E000002140F8301F202242738173026942F0AC
:1034F0000402026101730120704700207047000040
:103500002DE9F84F0446006889460B9D01689846EE
:10351000174641F4806101602068016841F48071C0
:10352000016000954FF0011B0022594620460A9B7E
:1035300000F0E4F84FF4007A40B120680068C0055C
:1035400001D5C4F840A00320BDE8F88F216809F038
:10355000FE0008612B46284920460A9A00F016F919
:10356000F0BB20684169806900902A4620460A998C
:1035700000F0A2F940B1206C04283AD1206801681B
:1035800041F40071016034E0FEB2B8F1010F09D0DE
:103590002168380A08612A4620460A9900F08CF909
:1035A0000028E8D1206806612A4620460A9900F0E2
:1035B00083F90028DFD12068016841F4807101603F
:1035C00000950022594620460A9B00F097F80028F3
:1035D000B3D1216809F0FF0040F00100086100E06C
:1035E00007E02B46044920460A9A00F0CFF800284D
:1035F000AAD00120A8E70000020001002DE9F8434D
:10360000044600680D46DDE90897016898461646AD
:1036100041F4807101604B4600224FF001112046B9
:10362000009700F06BF848B120680068C00502D52B
:103630004FF4007020640320BDE8F883216805F092
:10364000FE0008613B464A461549204600F09EF8B8
:1036500088B920684169806900903A464946204609
:1036600000F02AF948B1206C042804D120680168D0
:1036700041F4007101600120DEE7F5B2B8F1010FFD
:1036800009D02168300A08613A464946204600F0D0
:1036900013F90028E7D1206805610020CCE700007D
:1036A0000200010070B516460D4604461EE0204695
:1036B000FFF70EFF08B1012070BD681C16D0FEF7A1
:1036C000B5FA801BA84200D885B920684069C0437C
:1036D00040070BD5002044F8300F20216173A07300
:1036E000216941F0200121612073E4E720684069ED
:1036F000C0434007DBD4002070BD00002DE9F04737
:10370000984617460D460446C1F30746DDF820905B
:103710002AE000BFB8F1FF3F26D0FEF787FAA0EB02
:103720000901414502D8B8F1000F1DD12068012ED2
:1037300016D0806925EA00000004000C12D0002099
:10374000B84211D1002044F8300F20216173A073DA
:10375000216941F02001216120730120BDE8F0873B
:103760004069E7E70120EBE72068012E0AD0806975
:1037700025EA00000004000C06D00020B842C9D0A1
:103780000020EBE74069F3E70120F7E72DE9F04778
:10379000984616460D4604464FF000094FF0200AA1
:1037A000C1F3074723E020684069C043400515D4B2
:1037B0002068016841F40071016021686FF4806045
:1037C0004861C4F8309084F83DA084F83E90216CA4
:1037D00041F00401216484F83C9021E0701C06D083
:1037E000FEF724FAA0EB0800B04203D816B1012F6F
:1037F0001FD021E02068012F15D0806925EA000044
:103800000004000C18D000BF44F8309F84F80DA0CD
:1038100084F80E90216941F02001216184F80C9018
:103820000120BDE8F087406925EA00000004000C93
:10383000EAD12068406901E02068806925EA00003B
:103840000004000CAFD1ECE72DE9F04100259046D3
:103850000E460446202728E04069C043C0060CD429
:1038600054F8301B6FF01000486144F81059677726
:10387000A577206A2062257714E0FEF7D7F9A0EB40
:103880000800B04200D886B920684069C0434006AD
:103890000BD544F8305F6773A573206940F02000B2
:1038A000206125730120BDE8F08120684169C9438A
:1038B0004906D1D40020F6E770B516460D460446F9
:1038C0001EE02046FFF704FE08B1012070BD681C11
:1038D00016D0FEF7ABF9801BA84200D885B9206846
:1038E0004069C04300060BD5002044F8300F20216A
:1038F0006173A073216941F0200121612073E4E725
:1039000020684069C0430006DBD4002070BD000081
:103910002DE9F04F0E462DED0C8B8DB007460CA90E
:1039200006A81C461546DDE925A8DDF89090CDE9EE
:103930000001F7EE00BA0BAB07AADDF888B004A9C6
:1039400002A803F063F830B14FF0FF300DB0BDECCA
:103950000C8BBDE8F08FBDF8180010F0700F0BD085
:10396000BDF80810A9F80010BDF80A10AAF8001058
:10397000BDF80C10A8F80010BDF8180000070AD513
:10398000BDF810002080BDF81210ABF8001023988D
:10399000BDF814100180BDF81800C0057ED59DED5E
:1039A000070AF8EEC00A9FED440AB0EE00CA60EEC6
:1039B000809ADDED080AF8EEE00A69EE8CCA20EE86
:1039C000808ADDED090AF8EEE00A60EE808ADDED1E
:1039D0000A0AF8EEE00A20EE809AB8EE000A28EE15
:1039E00000BA2BEE090A0CEEA80A10EE100A05F038
:1039F000EDFC41EC100B01F097FE9FED30AB51EC6C
:103A0000100B53EC1A2B05F021FA04F0EDFF2BEE0E
:103A1000080A28EE8CDA38600DEE680A30EE2B0AC0
:103A200010EE100A05F0D2FC2DEE090A41EC1B0B3A
:103A30000CEE880A10EE100A05F0C8FC41EC100BE1
:103A4000B0EE4B1AF0EE6B1A02F08AF953EC1A2B17
:103A500051EC100B05F0FAF904F0C6FF29EEA90AA3
:103A6000306008EE080A08EEE80A09EE490A10EE8E
:103A7000100A05F0ABFC29EE890A41EC1B0B08EE9D
:103A8000280A20EE0C0A10EE100A05F09FFC41EC0B
:103A9000100BB0EE4B1AF0EE6B1A00E00AE002F0E9
:103AA0005FF953EC1A2B51EC100B05F0CFF904F031
:103AB0009BFF2860002049E700008030666666664C
:103AC00066A64C4038B5684604F016F810B14FF0C1
:103AD000FF3038BD782004F095FD10B16FF0010083
:103AE00038BD782003F034FF10B16FF0020038BD0C
:103AF000322004F03BFD10B16FF0030038BD02F03E
:103B00007BFF10B16FF0040038BD1948044603F084
:103B100069FE0546E01C03F065FE45EAC005A01DF0
:103B200003F060FE45EA801080B203F019F910B18D
:103B30006FF0050038BD40F2731002F035FE10B191
:103B40006FF0060038BD322003F072F810B16FF04C
:103B5000070038BD04F0FEFD10B16FF0080038BD5D
:103B6000012004F0FFFB0028F9D06FF0090038BDF8
:103B7000A80000202DE9F04F8DB01C46DDE9166548
:103B8000DDE918A90DF1040E0DF12C0C0DF128083A
:103B900009AF08ABDDF868B08EE8881107AB009379
:103BA00006ABFFF7B5FE20B14FF0FF300DB0BDE81A
:103BB000F08FBDF9180000EE100AF8EEC00A9FED74
:103BC000210A60EE800AC4ED000ABDF91C0000EE77
:103BD000900AF8EEE00A60EE800AC6ED000ABDF930
:103BE000200000EE900A05A8F8EEE00A20EE800A18
:103BF00085ED000A03F030FFBDF92400DDED050A74
:103C000000EE100AB8EEC00A80EE201A8AED001A03
:103C1000BDF92800DDED050A00EE100AB8EEC00A75
:103C200080EE201A89ED001ABDF92C00DDED050AA1
:103C300000EE100A0020B8EEC00A80EE201A8BEDCC
:103C4000001AB3E7000080382DE9F04F87B0142147
:103C50006846FCF745FD65480024016841F0100105
:103C60000160016801F010010591016841F0040153
:103C70000160016801F004010591016841F0200133
:103C80000160016801F020010591016841F08001A7
:103C90000160016801F080010591016841F00101B6
:103CA0000160016801F001010591016841F008011E
:103CB0000160016801F008010591016841F04001CF
:103CC0000160016801F040010591016841F00201C5
:103CD00001600068DFF8189100F002004FF4806581
:103CE0000590002229464846FDF79BFFDFF804A116
:103CF000002203215046FDF794FFDFF8FCB00022BC
:103D000004215846FDF78DFFAE10002231463B4896
:103D1000FDF787FF4FF49047002239463848FDF7FA
:103D200080FF4FF44078002241463648FDF779FF86
:103D300000950125CDE90154694648460394FDF7F5
:103D400073FE03200090CDE9015469465046039468
:103D5000FDF76AFE04200090CDE9015469465846FB
:103D60000394FDF761FE0820CDE9000402200290D3
:103D700069465846FDF758FE20208DE83100694617
:103D80005046FDF751FE0096CDE9015469461B48A7
:103D90000394FDF749FE4FF42A408DE8310069464F
:103DA0001648FDF741FE44F221008DE831006946D6
:103DB0001548FDF739FE38118DE831006946104885
:103DC000FDF732FE0097CDE9015469460C48039493
:103DD000FDF72AFECDF80080CDE901546946094877
:103DE0000394FDF721FE07B0BDE8F08F30380240A4
:103DF000001402400008024000000240001002408F
:103E00000018024000040240000C02400D4810B5AA
:103E10000B4901600C49416000214FF480428160F0
:103E2000C0E9031241618161C1610162FDF704FFD4
:103E3000002803D0BDE81040FDF786BD10BD00008E
:103E40000054004098010020A08601000B4810B5E6
:103E50000949016053214160002144F61F62C0E915
:103E6000021201618161FEF713FD002803D0BDE855
:103E70001040FDF769BD10BD00440140C4020020A0
:103E800010B58CB024216846FCF72AFC00241648A3
:103E9000099414490A94C0E900144FF6FF71C0E96F
:103EA0000241046184610320CDE900040120CDE9D1
:103EB00002040494CDE90540079469460A48089431
:103EC000FEF7ECFD08B1FDF73FFD099409A906488E
:103ED0000A94FEF795FC002801D0FDF735FD0CB0E3
:103EE00010BD000000040040EC01002010B58CB0B3
:103EF00024216846FCF7F4FB002416480994144971
:103F00000A94C0E900144FF6FF71C0E90241046150
:103F1000446184610320CDE900040120CDE902045D
:103F20000494CDE90540079469460A480894FEF7D1
:103F3000B5FD08B1FDF708FD099409A905480A94E3
:103F4000FEF75EFC002801D0FDF7FEFC0CB010BDB2
:103F5000000401403402002010B58CB00024079406
:103F6000089409941C2168460A94FCF7B9FB1F4881
:103F70001D4901605321C0E9011440F2E731C0E955
:103F800003148461FEF784FC08B1FDF7DDFC4FF4F7
:103F90008050079007A91548FEF712FD08B1FDF7FC
:103FA000D3FC1248FEF793FF08B1FDF7CDFC60206B
:103FB00000904FF4FA70CDE90104002269460B48E5
:103FC0000494FEF71EFF08B1FDF7BEFC042269460B
:103FD00006480194FEF715FF08B1FDF7B5FC03484C
:103FE000FEF7E4FE0CB010BD004001407C02002052
:103FF0000C4810B50A4901604FF4E13141600021DD
:1040000081600C22C160C0E904128161C161FFF7C7
:104010004FF9002803D0BDE81040FDF795BC10BD56
:10402000005000400C030020FEE7000010B5134CC8
:10403000207810B1012810D102E003F05BFB0CE006
:1040400003F0ACFB01F088F801F06AF8A17888422F
:1040500003D001216170A07002E0607800280BD0CD
:10406000207810B1012805D102E002F0F7FA01E052
:1040700002F020FB0020607010BD00001001002045
:1040800010B50E4C6278002A17D12061E1600C480F
:1040900090ED000A002084ED050AFDF71BFC0120CD
:1040A000FDF718FC00F0CEFC064800F0D3FD0548F3
:1040B0002C3000F0CFFD0120607010BD34010020D5
:1040C000200000209C03002070B52DED028B00F035
:1040D00091FC9FED218A40F2B634DFED218A6542E2
:1040E000F0EE481A224629469FED1C1AF0EE680AA7
:1040F000B3EE040A1B4800F09DFD1A48F0EE481A82
:10410000224629469FED181AF0EE680AB3EE040A1B
:104110002C3000F08FFD13484FF4C872DFED131AF6
:1041200051429FED131ADFED130AB3EE040A2C3847
:1041300000F080FDBDEC028B2322BDE870400948F1
:104140005142F3EE041AB7EE081ADFED0B0A9FEDA9
:104150000B0A583000F06EBD0000C8429A99193E13
:10416000CDCC4C3F9C030020CDCCCC3D0000B442D4
:10417000000096433333B33E000000007B142E3E14
:1041800010B5022000F04AFA01490020487010BD25
:104190003401002010B5114C617800291DD1206137
:1041A0000F4800F057FD0E48583800F053FD0C48FA
:1041B0002C3800F04FFD0B4890ED000A84ED060A04
:1041C000B5EEC00AF1EE10FA05D2DFED070A30EEC7
:1041D000200A84ED060A0420607010BD340100201E
:1041E000F4030020200000200000B44310B51E4C52
:1041F0006078002837D11D489FED1D1AD0ED000AC8
:10420000F5EEC00AF1EE10FA01D270EE810A1948FB
:1042100030EE800A84ED050A06E000BF94ED050A41
:1042200030EE410A84ED050A94ED050A10EE101AED
:104230008142F3DA06E000BF94ED050A30EE010A90
:1042400084ED050A94ED050AB5EEC00AF1EE10FA08
:10425000F2D3094800F0FEFC94ED050A064800F090
:1042600005FD0220607010BD3401002020000020F8
:104270000000B4430000B4437003002010B50D4C9F
:104280006078002815D1B5EEC00AF1EE10FA10D30F
:1042900010EE100A084988420BDA84ED050A074837
:1042A00000F0D8FC94ED050A044800F0DFFC032080
:1042B000607010BD340100200000B4437003002082
:1042C0002DE9F04700202DED028BFDF717FB0120B3
:1042D000FDF714FB00F0BEFBC14890ED000ADFEDD6
:1042E000C10AB5EEC00AF1EE10FA01D230EE200A92
:1042F000BD4C6278BD48BE490025012A0BD06278CA
:10430000022A7DD06278032AFBD06078042878D016
:10431000002108464CE1227852B194ED021A30EEA9
:10432000410A10EE102A824207DD30EE600A0AE0F0
:1043300084ED020A0122227020E010EE102A8A4247
:1043400001D930EE200ADFEDAB1AAB4B00EE211A9B
:1043500011EE102A84ED021A9A4202DAB0EE410AF6
:1043600003E031EE600A84ED020AB5EEC00AF1EE18
:1043700010FA03D230EE200A84ED020A94ED050A09
:1043800094ED021A30EE418A18EE102A824202DDC4
:1043900038EE608A05E018EE100A884201D938EE3E
:1043A000208A9FED960A68EE008AB0EE680A01F056
:1043B00077FEBDEEC00A10EE100A78B9B0EEC80A5A
:1043C000B5EEC00AF1EE10FA08DDF5EEC08AF1EEA6
:1043D00010FA01DD012001E04FF0FF302169A1EB6F
:1043E0000008216901EB00090020FDF74DFA07469E
:1043F0000120FDF749FA064681480760814801E03F
:1044000055E0A3E0066041467F4800F02DFC3946A8
:104410007D4800F071FB07467B4849462C3000F090
:1044200023FC794831462C3000F066FB01B238B2EB
:1044300000F034F90020FDF71BFA06460120FDF7D5
:1044400017FA724A311801EBD17149101660704A9F
:104450001060E06800D54942002800DA40428142FD
:1044600021DB022000F0DAF80020FDF70DFA064605
:104470000120FDF709FA002E00DA7642012E10DA4B
:10448000002800DA404201280BDAE06910B9FDF794
:10449000CDFBE061FDF7CAFBE169401A502801D36A
:1044A0006570E5612570BDEC028BBDE8F08794ED89
:1044B000051A31EE400A10EE102A824202DD30EE7B
:1044C000600A05E010EE100A884201D930EE200A99
:1044D000F0EEC00A10EE900AB0F17F5F0EDA4D48A0
:1044E000D0ED000AF0EEE00A10EE900AB0F17C5F29
:1044F00004DA022000F092F86570D4E7D4ED050AE2
:10450000414830EEC00A2C3800F048FB411E9FEDB8
:10451000420A3B2906D3542901D2552012E010F15A
:104520003B010AD300EE900AF8EEE00A20EE800A82
:10453000BDEEC00A10EE100A04E010F1540101D3E0
:104540006FF0540001B2404200B231E000F094FB41
:10455000411C33D02562E0802B480021583000F008
:1045600083FB2948B4F90610583000F0C5FA2169D8
:104570000D1A21690F180020FDF786F90646012063
:10458000FDF782F9044629461F4800F06DFB3146CD
:104590001D4800F0B1FA05461B4839462C3000F0A2
:1045A00063FB194821462C3000F0A6FA01B228B26C
:1045B000BDEC028BBDE8F04700F070B8206A50B146
:1045C000FDF734FB216A401A5028C5D9FFF7D8FD02
:1045D0002562E58067E7FDF729FB2062BCE7000064
:1045E000200000200000B4433401002000003443C8
:1045F000000034C3CDCC4C3E0000B443CDCC4C3D88
:1046000000000020040000209C030020080000207F
:104610000C000020380000205555B53F2DE9F0472B
:104620001A4E1B4D00244FF400614FF4804808B32C
:10463000184FDFF864A04FF4806901280CD00228DD
:1046400016D101223046FDF7ECFA012241463046F0
:10465000FDF7E7FA28684463012211463846FDF762
:10466000E0FA012249465046FDF7DBFA28688463E8
:10467000BDE8F08701223046FDF7D3FA012241461A
:104680003046FDF7CEFA28684463F1E7001802408F
:104690007C020020000802400014024010B50C46C5
:1046A0000146002004F0DAF82146BDE81040012060
:1046B00004F0D4B810B500210648FEF737FC0421F9
:1046C0000448FEF733FC0021BDE810400846FFF720
:1046D000E5BF00007C020020FEE770B50024002149
:1046E000204600F0FFF80025002000F065F96D1C61
:1046F000EDB2802DF8D3641CE4B2082CEFD370BD6A
:1047000010B5FDF793F8094C012211022046FDF780
:1047100088FA0120FDF776F8012251022046FDF7C4
:1047200080FABDE810400120FDF76CB8000402409B
:104730002DE9F0471B4E002407464FF080084FF448
:104740000079B51528FA04F23A4049463046FDF79B
:1047500068FA0120FDF756F8012229463046FDF798
:1047600060FA0120FDF74EF8002229463046FDF799
:1047700058FA0120FDF746F8641CE4B2082CE1D396
:10478000012229463046FDF74CFA0120FDF73AF8A0
:10479000002229463046FDF744FABDE8F0470120E3
:1047A000FDF730B80004024070B50122114D5402EB
:1047B00021462846FDF735FA0120FDF723F80122AE
:1047C000160231462846FDF72CFA0120FDF71AF8AB
:1047D000002221462846FDF724FA0120FDF712F8B1
:1047E000002231462846FDF71CFABDE87040012042
:1047F000FDF708B80004024070B50E4D4FF4007488
:10480000002221462846FDF70CFA0120FCF7FAFFAA
:10481000012211022846FDF704FA0120FCF7F2FFFD
:10482000012221462846FDF7FCF9BDE87040012031
:10483000FCF7E8BF0004024010B500204FF47A7284
:104840000021491C9142FCD3401C9042F8D3FFF751
:1048500057FFAE2000F09FF8D52000F09CF8802094
:1048600000F099F8A82000F096F83F2000F093F8A7
:10487000D32000F090F8002000F08DF8402000F0E8
:104880008AF8A12000F087F8C82000F084F8DA2028
:1048900000F081F8122000F07EF8812000F07BF813
:1048A000CF2000F078F8D92000F075F8F12000F062
:1048B00072F8DB2000F06FF8302000F06CF8A420D4
:1048C00000F069F8A62000F066F88D2000F063F88B
:1048D000142000F060F8AF2000F05DF8BDE8104053
:1048E000FFF7FBBE10B50C4640F0B00000F053F8E7
:1048F000102040EA141000F04EF804F00F00BDE85C
:10490000104000F048B800002DE9F0410746CE0005
:104910004000083E801E15464FF0FF38F1B2C0B28D
:10492000FFF7E0FF1148002400EB05152819A0F55A
:10493000805090F8000E00F03FF8641CE4B2082CA0
:10494000F4D308EB4700F1B2C0B2FFF7CBFF00246D
:104950002819A0F5805090F8080E00F02DF8641C7E
:10496000E4B2082CF4D3BDE8F081000040950008C3
:104970002DE9F04115460E460746002406E03019A1
:10498000C1B23846FFF7C0FF641CE4B22A5D002ABA
:10499000F5D1BDE8F08110B50446FFF705FF78209A
:1049A000FFF7C6FE0020FFF7C3FE2046FFF7C0FE5C
:1049B000BDE81040FFF720BF10B50446FFF7F4FE36
:1049C0007820FFF7B5FE4020FFF7B2FE2046FFF744
:1049D000AFFEBDE81040FFF70FBF0000002805D074
:1049E00072B6034B0ECB80E80E0062B67047000033
:1049F000640300200B4810B59FED090A80ED000A02
:104A000080ED010A80ED020A0020FCF763FF01201F
:104A1000FCF760FF044800210160416010BD000008
:104A200000000000640300200001002004489FED06
:104A3000030A80ED000A80ED010A704700000000C3
:104A400064030020024800210160416070470000BB
:104A5000000100202DE9F04100202DED028BFCF734
:104A600007FF06460120FCF703FF1E4C074620689F
:104A7000311A6068A160381AE060084400EE100A3C
:104A8000F6EE000ADFF86480B8EEC00A20EE200AD5
:104A9000DFED150A20EE208A98ED000ADFED140AFA
:104AA00060EE208AB0EE680A01F052FA114DD5EDA1
:104AB000000A48EE000AB0EE680AC5ED000A01F0EF
:104AC0003DFBD5ED010A48EE000AC5ED010A98ED5F
:104AD000000A85ED020AC4E90067BDEC028BBDE85F
:104AE000F0810000000100201A7C6F3C20000020B3
:104AF00035FA8E3C64030020C268D0ED000A511ADA
:104B000000EE101AB8EEC00A20EE801A00EE101A5D
:104B1000D0ED050AB8EEC00A30EE800A80ED050A35
:104B2000D0ED0A0AB4EEE00AF1EE10FA06DCF1EE7E
:104B3000600AB4EEE00AF1EE10FA01D2C0ED050A07
:104B400090ED010AD0ED050A8269D0ED021A60EEFF
:104B5000200A8A1A00EE102A816171EE200AB8EE4E
:104B6000C00A21EE800A30EE800AD0ED090AB8EEC4
:104B7000E01AB4EEC01AF1EE10FA08D3D0ED080A2C
:104B8000B8EEE01AB4EEC01AF1EE10FA01DDB8EE9C
:104B9000E00ABDEEC00A10EE100A7047D0ED040A1C
:104BA00030EEC00AD0ED000A60EE801AD0ED050AA2
:104BB00070EE800AC0ED050A90ED0A1AF4EEC10A03
:104BC000F1EE10FA06DCB1EE411AF4EEC10AF1EE94
:104BD00010FA01D280ED051AD0ED010A90ED051A08
:104BE00090ED072A60EE810A30EE422A90ED021A1B
:104BF00080ED070A31EEA00A21EE021AD0ED090A73
:104C000030EE010AB8EEE01AB4EEC01AF1EE10FA76
:104C100008D3D0ED080AB8EEE01AB4EEC01AF1EEEF
:104C200010FA01DDB8EEE00ABDEEC00A10EE100A7F
:104C30007047000080EC030A00239FED050AC36063
:104C400080ED050A8361C0E90812C0ED0A1A7047B9
:104C5000000000009FED030A002180ED050A81613C
:104C60007047000000000000C160704780ED040A3A
:104C7000704770477047000070B502F099FCFF283C
:104C800009D000230D4C19461A4600BF20FA02F540
:104C9000ED0703D007E04FF0FF3070BD34F912503C
:104CA000491C2B44C9B2521C082AEFDB002011B169
:104CB00093FBF1F000B20249488070BD8AA700085A
:104CC000CC000020FCF7B2BD10B5FDF747FA07484D
:104CD0004168491C41604168B1F57A7F04D301689D
:104CE000491C01600021416010BD00003C00002013
:104CF00030B593B030216846FBF7F2FC14210CA8C4
:104D0000FBF7EEFC1D480025016841F08051016071
:104D1000006800F0805011901948016841F480410A
:104D200001600068022400F480401190012003908B
:104D300010200490009406940820CDE90750A82084
:104D4000CDE9090404200B906846FDF78DFB08B1FE
:104D500072B6FEE70CA90F2081E831004FF4A05095
:104D60000F904FF48050109005210CA8FDF790FA99
:104D7000002801D072B6FEE713B030BD40380240C3
:104D8000007000400248016841F470010160704702
:104D900088ED00E00148FDF771BF0000C40200206B
:104DA000F0B50268294C2A4D2A4E2B4F2B4B4FF061
:104DB000804CA04209D0604507D0A84205D0B0423F
:104DC00003D0B84201D0984204D122F0700E4A6854
:104DD00042EA0E02A0421BD0604519D0A84217D06B
:104DE000B04215D0B84213D0984211D01C4DA84201
:104DF0000ED01C4DA8420BD01B4DA84208D01B4D15
:104E0000A84205D01A4DA84202D01A4DA84203D19B
:104E100022F44075CA682A434D6922F080022A4371
:104E200002608A68C2620A688262A04201D0984227
:104E300001D109690163012141610169C90703D0F9
:104E4000016921F001010161F0BD00000000014095
:104E50000004004000080040000C00400004014035
:104E6000004001400044014000480140001800405B
:104E7000001C00400020004010B501F01F0301217C
:104E8000046A99408C430462016A9A4011430162AA
:104E900010BD10B5846842EA032224F47F440A431B
:104EA0002243826010BD826822F070020A4342F001
:104EB0000701816070470000F0B5036A026A22F0C2
:104EC0000102026242688469124E24F073050C6884
:104ED0002C4323F002058B682B430D4DA84201D0D3
:104EE000B04205D123F00807CB683B4323F004030D
:104EF000A84201D0B04205D14D6922F44072154359
:104F00008A692A4342608461496841630362F0BD53
:104F10000000014000040140F0B5026A036A23F07A
:104F200010030362436884690D6824F4E64444EA8C
:104F300005248D6822F0200242EA05120F4D104E22
:104F4000A84201D0B04206D1CF6822F0800242EAE6
:104F5000071222F04002A84201D0B04207D14D69A9
:104F600023F4406343EA85038D6943EA8503436084
:104F70008461496881630262F0BD00000000014065
:104F800000040140F0B5026A036A23F480730362EF
:104F90004368C46922F4007224F073050C68124E51
:104FA0002C438D6842EA05220E4DA84201D0B04242
:104FB00006D1CF6822F4006242EA072222F480621E
:104FC000A84201D0B04207D14D6923F4405343EACF
:104FD00005138D6943EA05134360C4614968C163E1
:104FE0000262F0BD000001400004014030B5046AD7
:104FF000026A22F4805202624268C3690D6823F497
:10500000E64343EA05238D6824F4005444EA05345A
:10501000084DA84202D0084DA84204D14D6922F49F
:10502000804242EA85124260C361496801640462B9
:1050300030BD0000000001400004014010B5036ACB
:10504000046A24F001040462846924F0F00444EA50
:10505000021423F00A020A438461026210BD10B5F3
:10506000036A046A24F010040462846923F0A00334
:1050700024F4704444EA023243EA0111826101627D
:1050800010BD0000074810B501214171C170817049
:10509000FFF7CCFCBDE8104041F664113C20FEF760
:1050A000EFBF000034010020074810B50221417114
:1050B000C1708170FFF7BAFCBDE8104041F6641181
:1050C0003C20FEF7DDBF000034010020074810B58A
:1050D00003214171C17008218170FFF7A7FCBDE871
:1050E00010409FED030AFFF781B800003401002053
:1050F00000005CC2084810B504214171C170012153
:10510000017108218170FFF791FCBDE810409FED0F
:10511000030AFFF76BB800003401002000005CC2F6
:105120000548417921B18078122803D001207047C9
:1051300000207047022070473401002010B5FFF7AF
:105140001FF8FCF70BFB0348002141718170C1700F
:10515000017110BD3401002070B5904C12262DED68
:10516000048B84B0A0789FED8E9ADFED8E8A8E49F5
:105170008E4D9FED8F8A132870D2DFE800F06F0A02
:10518000101A414B53777C818F949FA9AECDDAEBF7
:105190003D00607800282FD1FCF7F8FA69E06078CC
:1051A000002829D1FCF7F2FA2820FEF7F3FF0320AC
:1051B00021E0607800281FD1FCF7E8FA95ED000A9D
:1051C000B5EEC00AF1EE10FA95ED000A01D230EE0C
:1051D000090AF0EEC00A30EE480AB0EEC00AF4EE5A
:1051E000C00AF1EE10FA01D3DFED728AB0EE680A60
:1051F000FFF744F80420A07004B0BDEC048B70BD30
:1052000060780028F8D141F6C8113C20FEF738FF3D
:105210000520F0E760780028EED12820FEF7BAFFDD
:10522000062021E060780028E6D195ED000AB5EE71
:10523000C00AF1EE10FA95ED000A01D230EE090A2B
:10524000F0EEC00A30EE480AB0EEC00AF4EEC00A32
:10525000F1EE10FA03D2B0EE680A02E096E0B0EE8A
:10526000480AFFF70BF80720A07088E06078002854
:10527000C2D1A670C0E760780028BDD109204FE0F8
:105280006846FFF7ABFB4C4901988842B4D3FEF760
:1052900077FF0A20A070B0EE680A3AE06078002834
:1052A000AAD10B203CE06846FFF798FB43490098E1
:1052B0008842A1DBFEF764FF0C2044E06078002800
:1052C0009AD10D20A0709FED3E0AFEF78FFF56E0A9
:1052D0006078002890D10E2022E06846FFF77EFB20
:1052E00020799FED380A401E01EE100AF0EE000A08
:1052F000B8EEC11A01EE200ADDED010AF4EEC00A93
:10530000F1EE10FAB6D8FEF73BFF0F20A070B0EE1A
:10531000480AFEF7B3FF6FE760780028AAD1102093
:10532000A07004B03C20BDEC048BBDE87040FEF7DB
:10533000A7BE6846FFF752FB23490098884299DCD4
:10534000FEF71EFF1120A0702820FEF723FFFCF7B8
:105350001DFA51E7607800288CD1E07804280DD13F
:10536000207904280AD2401C20710820A070FFF781
:105370005DFB9FED160AFEF781FF00E0A67004B00A
:10538000BDEC048BBDE87040FCF700BA04B0BDEC86
:10539000048BBDE87040FFF7D1BE0000340100204F
:1053A0000000B443000000003F420F002000002036
:1053B000000034430000374300008CC20000BE42AE
:1053C0000000964200008CC20000704100009B4328
:1053D0000148FDF735BE00000C03002010B5806BBE
:1053E0000021C185C184FDF729FE10BD01680C3183
:1053F00051E8002F22F4907241E80023002BF5D1F0
:105400000168143151E8002F22F0010241E8002325
:10541000002BF5D1016B012909D101680C3151E84C
:10542000002F22F0100241E80023002BF5D12021AB
:1054300080F8421000210163704708B590F84210CF
:10544000222901D0022008BD82684FF480539A427D
:1054500001D1016921B1816A9A421BD04AB10AE0A7
:105460000268816A5268C2F308020A80816A891C54
:1054700008E0026972B10268526802F07F020A70A5
:10548000816A491C8162C18D491E0904090CC185CC
:1054900003D01BE002685268F1E70168CA6822F095
:1054A0002002CA600168CA6822F48072CA6001687A
:1054B0004A6922F001024A61202180F8421000214D
:1054C0004163026B012A03D0FDF784FF002008BD71
:1054D000016301680C3151E8002F22F0100241E80D
:1054E0000023002BF5D101680A68D20602D50A68AC
:1054F00049680091818DFDF7A0FDE7E770B504468E
:1055000000680169E26821F4405111430161216999
:10551000A068E26908436169114308432168CA68C9
:1055200049F20C639A430243CA6020684169A26948
:1055300021F440711143416131492068884202D011
:105540003049884202D1FCF74DFF01E0FCF73AFFF9
:10555000E2690023192164253226B2F5004F626802
:1055600028D0A0FB0101930F9200FAF7AFFE01468D
:10557000B0FBF5F06FF01802504301EB800006EB32
:105580000010B0FBF5F000F0F002B1FBF5F002EB1B
:105590000012B1FBF5F06FF01803584301EB8000E7
:1055A00006EB0010B0FBF5F000F00F00216810448E
:1055B000886070BDA0FB010192185B41FAF786FE7E
:1055C0000146B0FBF5F00201B1FBF5F06FF01803F6
:1055D000584301EB800006EBC000B0FBF5F000F093
:1055E000F80002EB4002B1FBF5F0584301EB8000FC
:1055F00006EBC000B0FBF5F000F00700D6E70000B6
:10560000001001400014014081628285C2850021A2
:105610004164222180F84210016921B10168CA6801
:1056200042F48072CA6001684A6942F001024A612C
:105630000068C16841F02001C160002070472DE979
:10564000F843984617460D460446089E24E0701C11
:1056500022D0FCF7EBFAA0EB0800B0421AD8CEB18A
:105660002068C168490717D5802D15D0402D13D06B
:105670000168C94309070FD40168002540680090FC
:105680002046FFF7B3FE0820606484F840500120F4
:10569000BDE8F8830320FBE72068006835EA0000D6
:1056A00004D00020B842D2D00020F1E70120F9E771
:1056B000FEE703B401984100009850EAC12018BFEA
:1056C00004204A0D18BF40F0010040F2FF72B2EB17
:1056D000515F08BF40F00200012808BF052002B05A
:1056E00070474100080218BF04200A0E18BF40F09E
:1056F00001004FF07F4232EA010108BF40F0020092
:10570000012808BF052070470907090E002804DB9F
:1057100000F1E02080F80014704700F00F0000F165
:10572000E02080F8141D704770B5C1482DED020BC4
:105730002DED0E8B82B0119D25F000449FEDBEDB58
:105740009FEDBFEB84423EDBA4F140511098A1F1E4
:105750007F6108430FD0BC48844202DC28D11098F6
:1057600030B39DED100B02B0BDEC0E8B02B0BDE866
:10577000704000F027BE9DED100B53EC1D2B51EC3B
:10578000100B03F063FB9DED100B41EC180B53EC79
:105790001E2B51EC100B03F059FB53EC182B03F0AC
:1057A00055F941EC100B02B0BDEC0E8B02B070BD90
:1057B0000120FAF7C4FF02B0BDEC0E8B02B0BDE8C9
:1057C000704000F015BEA1489FEDA18B844256DACF
:1057D0009DED100BB4F1795F0ADA51EC100BFFF775
:1057E00068FF042808BF00F013FE9DED100BDAE7F8
:1057F00053EC102B51EC100B03F028FB41EC190B70
:1058000095480621B0EE490AF0EE690A784400F0A6
:105810005DFD53EC192B51EC100B03F017FB41EC21
:105820001A0B8E48B0EE490AF0EE690A042178445A
:1058300000F04CFD53EC192B51EC100B03F006FB60
:1058400053EC182B03F002F941EC100B51EC1A0B3E
:1058500053EC102B03F0A2F9CDE900019DED000BF4
:1058600053EC102B9DED100B51EC100B03F0EEFAE6
:105870009DED101B53EC112B03F0E8F8D2E09DEDE9
:10588000100B51EC100B01F02BFC53EC182B03F018
:10589000DBFB9FED730BCDE9000153EC102B9DED6D
:1058A000000B51EC100B03F0D1FA41EC190B6E48D0
:1058B0000621B0EE490AF0EE690A784400F006FDD0
:1058C00053EC192B51EC100B03F0C0FA41EC1B0BFD
:1058D0006648B0EE490AF0EE690A0421784400F007
:1058E000F5FC53EC192B51EC100B03F0AFFA53EC11
:1058F000182B03F0ABF841EC1C0B51EC190B03F027
:1059000019F841EC180B5A489FED5BABA04222DC22
:1059100053EC1C2B51EC1B0B03F040F9CDE90001BB
:105920009DED000B51EC180B53EC102B03F08EFA8D
:1059300053EC182B03F08AF853EC1A2B03F086FA79
:1059400053EC1D2B03F058FC53EC1E2B03F07CFB97
:1059500041EC100B5FE08DED008B002000909DED81
:10596000000B51EC180B53EC102B03F06FF89DED6E
:10597000000B41EC1E0B53EC102B51EC100B03F001
:1059800065FA53EC192B03F05FFB53EC1E2B03F06D
:1059900005F941EC190B53EC1C2B51EC1B0B03F0DC
:1059A000FDF841EC1B0B53EC1A2B51EC190B03F0D7
:1059B0004DFA53EC1D2B03F047FB41EC190B53EC54
:1059C0001A2B51EC180B03F041FA53EC1B2B03F08C
:1059D0003DFA53EC192B03F00FFC9DED000B41EC4D
:1059E000180B53EC1A2B51EC100B03F02FFA9FED10
:1059F000249B53EC192B03F027FB41EC100B51ECCB
:105A0000180B53EC102B03F0F7FB53EC192B03F09E
:105A10001BFB41EC100B002D3FF7C5AE51EC100BFA
:105A200002F0D6FF41EC100BBDE6000000000000C4
:105A30000000F03F00000000075C143326A6913CF4
:105A4000182D4454FB21F93F0000F07F0000E03F97
:105A5000000000000000F03F904F00009E4F00004B
:105A6000000000000000E03FE24E0000F04E0000A9
:105A70003333EF3F00000000000000000000004052
:105A8000182D4454FB21E93F70B59B482DED020BC6
:105A90002DED068B079D25F00044A04218DC9748A9
:105AA000844202DC0AD1069840B19DED060BBDECA4
:105AB000068B02B0BDE8704000F084BC002DCCBF66
:105AC0009FED8F0B9FED900BBDEC068B02B070BD70
:105AD0008F48A04215DD8F48A042D8BF4FF0FF3459
